{"abi":[{"type":"constructor","inputs":[],"stateMutability":"nonpayable"},{"type":"receive","stateMutability":"payable"},{"type":"function","name":"DEAD","inputs":[],"outputs":[{"name":"","type":"address","internalType":"address"}],"stateMutability":"view"},{"type":"function","name":"DEFAULT_AGENT_IDENTIFIER","inputs":[],"outputs":[{"name":"","type":"address","internalType":"address"}],"stateMutability":"view"},{"type":"function","name":"DEFAULT_ROUTER","inputs":[],"outputs":[{"name":"","type":"address","internalType":"address"}],"stateMutability":"view"},{"type":"function","name":"SCORE_INIT","inputs":[],"outputs":[{"name":"","type":"uint256","internalType":"uint256"}],"stateMutability":"view"},{"type":"function","name":"SCORE_MAX","inputs":[],"outputs":[{"name":"","type":"uint256","internalType":"uint256"}],"stateMutability":"view"},{"type":"function","name":"SCORE_MIN","inputs":[],"outputs":[{"name":"","type":"uint256","internalType":"uint256"}],"stateMutability":"view"},{"type":"function","name":"UPGRADE_INTERFACE_VERSION","inputs":[],"outputs":[{"name":"","type":"string","internalType":"string"}],"stateMutability":"view"},{"type":"function","name":"WBNB","inputs":[],"outputs":[{"name":"","type":"address","internalType":"address"}],"stateMutability":"view"},{"type":"function","name":"_doExecute","inputs":[{"name":"choice","type":"uint8","internalType":"uint8"}],"outputs":[],"stateMutability":"payable"},{"type":"function","name":"accuracyScore","inputs":[{"name":"","type":"address","internalType":"address"}],"outputs":[{"name":"","type":"uint256","internalType":"uint256"}],"stateMutability":"view"},{"type":"function","name":"agentIdentifier","inputs":[],"outputs":[{"name":"","type":"address","internalType":"address"}],"stateMutability":"view"},{"type":"function","name":"agents","inputs":[{"name":"","type":"uint256","internalType":"uint256"}],"outputs":[{"name":"","type":"address","internalType":"address"}],"stateMutability":"view"},{"type":"function","name":"claimDevPool","inputs":[],"outputs":[],"stateMutability":"nonpayable"},{"type":"function","name":"currentRoundId","inputs":[],"outputs":[{"name":"","type":"uint256","internalType":"uint256"}],"stateMutability":"view"},{"type":"function","name":"devPool","inputs":[],"outputs":[{"name":"","type":"uint256","internalType":"uint256"}],"stateMutability":"view"},{"type":"function","name":"devWallet","inputs":[],"outputs":[{"name":"","type":"address","internalType":"address"}],"stateMutability":"view"},{"type":"function","name":"distributeRewards","inputs":[{"name":"roundId","type":"uint256","internalType":"uint256"}],"outputs":[],"stateMutability":"nonpayable"},{"type":"function","name":"emergencyWithdraw","inputs":[],"outputs":[],"stateMutability":"nonpayable"},{"type":"function","name":"executeRound","inputs":[{"name":"roundId","type":"uint256","internalType":"uint256"}],"outputs":[],"stateMutability":"nonpayable"},{"type":"function","name":"executionDone","inputs":[{"name":"","type":"uint256","internalType":"uint256"}],"outputs":[{"name":"","type":"bool","internalType":"bool"}],"stateMutability":"view"},{"type":"function","name":"executionPool","inputs":[],"outputs":[{"name":"","type":"uint256","internalType":"uint256"}],"stateMutability":"view"},{"type":"function","name":"fulfillReasoning","inputs":[{"name":"requestId","type":"uint256","internalType":"uint256"},{"name":"choice","type":"uint8","internalType":"uint8"}],"outputs":[],"stateMutability":"nonpayable"},{"type":"function","name":"getSignals","inputs":[{"name":"roundId","type":"uint256","internalType":"uint256"}],"outputs":[{"name":"","type":"tuple[]","internalType":"struct HiveMindTreasuryV4.Signal[]","components":[{"name":"agent","type":"address","internalType":"address"},{"name":"signal","type":"uint8","internalType":"uint8"},{"name":"reasoningHash","type":"bytes32","internalType":"bytes32"},{"name":"weight","type":"uint256","internalType":"uint256"},{"name":"timestamp","type":"uint256","internalType":"uint256"}]}],"stateMutability":"view"},{"type":"function","name":"hasSubmittedSignal","inputs":[{"name":"","type":"uint256","internalType":"uint256"},{"name":"","type":"address","internalType":"address"}],"outputs":[{"name":"","type":"bool","internalType":"bool"}],"stateMutability":"view"},{"type":"function","name":"holderDividendPool","inputs":[],"outputs":[{"name":"","type":"uint256","internalType":"uint256"}],"stateMutability":"view"},{"type":"function","name":"initialize","inputs":[{"name":"_owner","type":"address","internalType":"address"},{"name":"_token","type":"address","internalType":"address"},{"name":"_minHolding","type":"uint256","internalType":"uint256"}],"outputs":[],"stateMutability":"nonpayable"},{"type":"function","name":"isRegisteredAgent","inputs":[{"name":"agent","type":"address","internalType":"address"}],"outputs":[{"name":"","type":"bool","internalType":"bool"}],"stateMutability":"view"},{"type":"function","name":"lastRequestId","inputs":[],"outputs":[{"name":"","type":"uint256","internalType":"uint256"}],"stateMutability":"view"},{"type":"function","name":"manualExecute","inputs":[{"name":"roundId","type":"uint256","internalType":"uint256"}],"outputs":[],"stateMutability":"nonpayable"},{"type":"function","name":"minHolding","inputs":[],"outputs":[{"name":"","type":"uint256","internalType":"uint256"}],"stateMutability":"view"},{"type":"function","name":"onFlapAIRequestRefunded","inputs":[{"name":"requestId","type":"uint256","internalType":"uint256"}],"outputs":[],"stateMutability":"payable"},{"type":"function","name":"owner","inputs":[],"outputs":[{"name":"","type":"address","internalType":"address"}],"stateMutability":"view"},{"type":"function","name":"proxiableUUID","inputs":[],"outputs":[{"name":"","type":"bytes32","internalType":"bytes32"}],"stateMutability":"view"},{"type":"function","name":"registerAgent","inputs":[],"outputs":[],"stateMutability":"nonpayable"},{"type":"function","name":"registeredAgents","inputs":[{"name":"","type":"address","internalType":"address"}],"outputs":[{"name":"","type":"bool","internalType":"bool"}],"stateMutability":"view"},{"type":"function","name":"renounceOwnership","inputs":[],"outputs":[],"stateMutability":"nonpayable"},{"type":"function","name":"requestToRound","inputs":[{"name":"","type":"uint256","internalType":"uint256"}],"outputs":[{"name":"","type":"uint256","internalType":"uint256"}],"stateMutability":"view"},{"type":"function","name":"requireAgentId","inputs":[],"outputs":[{"name":"","type":"bool","internalType":"bool"}],"stateMutability":"view"},{"type":"function","name":"roundEndPrice","inputs":[{"name":"","type":"uint256","internalType":"uint256"}],"outputs":[{"name":"","type":"uint256","internalType":"uint256"}],"stateMutability":"view"},{"type":"function","name":"roundStartPrice","inputs":[{"name":"","type":"uint256","internalType":"uint256"}],"outputs":[{"name":"","type":"uint256","internalType":"uint256"}],"stateMutability":"view"},{"type":"function","name":"roundWindow","inputs":[],"outputs":[{"name":"","type":"uint256","internalType":"uint256"}],"stateMutability":"view"},{"type":"function","name":"rounds","inputs":[{"name":"","type":"uint256","internalType":"uint256"}],"outputs":[{"name":"roundId","type":"uint256","internalType":"uint256"},{"name":"startTime","type":"uint256","internalType":"uint256"},{"name":"signalDeadline","type":"uint256","internalType":"uint256"},{"name":"executed","type":"bool","internalType":"bool"},{"name":"totalSignals","type":"uint256","internalType":"uint256"},{"name":"finalDecision","type":"uint8","internalType":"uint8"}],"stateMutability":"view"},{"type":"function","name":"router","inputs":[],"outputs":[{"name":"","type":"address","internalType":"address"}],"stateMutability":"view"},{"type":"function","name":"setAgentIdentifier","inputs":[{"name":"v","type":"address","internalType":"address"}],"outputs":[],"stateMutability":"nonpayable"},{"type":"function","name":"setDevWallet","inputs":[{"name":"v","type":"address","internalType":"address"}],"outputs":[],"stateMutability":"nonpayable"},{"type":"function","name":"setMinHolding","inputs":[{"name":"v","type":"uint256","internalType":"uint256"}],"outputs":[],"stateMutability":"nonpayable"},{"type":"function","name":"setRequireAgentId","inputs":[{"name":"v","type":"bool","internalType":"bool"}],"outputs":[],"stateMutability":"nonpayable"},{"type":"function","name":"setRoundWindow","inputs":[{"name":"v","type":"uint256","internalType":"uint256"}],"outputs":[],"stateMutability":"nonpayable"},{"type":"function","name":"setRouter","inputs":[{"name":"v","type":"address","internalType":"address"}],"outputs":[],"stateMutability":"nonpayable"},{"type":"function","name":"setToken","inputs":[{"name":"_token","type":"address","internalType":"address"}],"outputs":[],"stateMutability":"nonpayable"},{"type":"function","name":"signalRewardPool","inputs":[],"outputs":[{"name":"","type":"uint256","internalType":"uint256"}],"stateMutability":"view"},{"type":"function","name":"startNewRound","inputs":[],"outputs":[],"stateMutability":"nonpayable"},{"type":"function","name":"submitSignal","inputs":[{"name":"roundId","type":"uint256","internalType":"uint256"},{"name":"signal","type":"uint8","internalType":"uint8"},{"name":"reasoning","type":"string","internalType":"string"}],"outputs":[],"stateMutability":"nonpayable"},{"type":"function","name":"token","inputs":[],"outputs":[{"name":"","type":"address","internalType":"address"}],"stateMutability":"view"},{"type":"function","name":"totalAgents","inputs":[],"outputs":[{"name":"","type":"uint256","internalType":"uint256"}],"stateMutability":"view"},{"type":"function","name":"transferOwnership","inputs":[{"name":"newOwner","type":"address","internalType":"address"}],"outputs":[],"stateMutability":"nonpayable"},{"type":"function","name":"unregisterAgent","inputs":[],"outputs":[],"stateMutability":"nonpayable"},{"type":"function","name":"upgradeToAndCall","inputs":[{"name":"newImplementation","type":"address","internalType":"address"},{"name":"data","type":"bytes","internalType":"bytes"}],"outputs":[],"stateMutability":"payable"},{"type":"event","name":"AccuracyUpdated","inputs":[{"name":"agent","type":"address","indexed":false,"internalType":"address"},{"name":"newScore","type":"uint256","indexed":false,"internalType":"uint256"}],"anonymous":false},{"type":"event","name":"AgentRegistered","inputs":[{"name":"agent","type":"address","indexed":false,"internalType":"address"}],"anonymous":false},{"type":"event","name":"AgentUnregistered","inputs":[{"name":"agent","type":"address","indexed":false,"internalType":"address"}],"anonymous":false},{"type":"event","name":"DevFee","inputs":[{"name":"amount","type":"uint256","indexed":false,"internalType":"uint256"}],"anonymous":false},{"type":"event","name":"ExecutionResult","inputs":[{"name":"roundId","type":"uint256","indexed":false,"internalType":"uint256"},{"name":"success","type":"bool","indexed":false,"internalType":"bool"}],"anonymous":false},{"type":"event","name":"Initialized","inputs":[{"name":"version","type":"uint64","indexed":false,"internalType":"uint64"}],"anonymous":false},{"type":"event","name":"OwnershipTransferred","inputs":[{"name":"previousOwner","type":"address","indexed":true,"internalType":"address"},{"name":"newOwner","type":"address","indexed":true,"internalType":"address"}],"anonymous":false},{"type":"event","name":"RewardsDistributed","inputs":[{"name":"roundId","type":"uint256","indexed":false,"internalType":"uint256"},{"name":"totalRewards","type":"uint256","indexed":false,"internalType":"uint256"}],"anonymous":false},{"type":"event","name":"RoundExecuted","inputs":[{"name":"roundId","type":"uint256","indexed":false,"internalType":"uint256"},{"name":"decision","type":"uint8","indexed":false,"internalType":"uint8"}],"anonymous":false},{"type":"event","name":"RoundStarted","inputs":[{"name":"roundId","type":"uint256","indexed":false,"internalType":"uint256"},{"name":"signalDeadline","type":"uint256","indexed":false,"internalType":"uint256"}],"anonymous":false},{"type":"event","name":"SignalSubmitted","inputs":[{"name":"roundId","type":"uint256","indexed":false,"internalType":"uint256"},{"name":"agent","type":"address","indexed":false,"internalType":"address"},{"name":"signal","type":"uint8","indexed":false,"internalType":"uint8"},{"name":"reasoning","type":"string","indexed":false,"internalType":"string"},{"name":"weight","type":"uint256","indexed":false,"internalType":"uint256"}],"anonymous":false},{"type":"event","name":"Upgraded","inputs":[{"name":"implementation","type":"address","indexed":true,"internalType":"address"}],"anonymous":false},{"type":"error","name":"AddressEmptyCode","inputs":[{"name":"target","type":"address","internalType":"address"}]},{"type":"error","name":"ERC1967InvalidImplementation","inputs":[{"name":"implementation","type":"address","internalType":"address"}]},{"type":"error","name":"ERC1967NonPayable","inputs":[]},{"type":"error","name":"FailedCall","inputs":[]},{"type":"error","name":"InvalidInitialization","inputs":[]},{"type":"error","name":"NotInitializing","inputs":[]},{"type":"error","name":"OwnableInvalidOwner","inputs":[{"name":"owner","type":"address","internalType":"address"}]},{"type":"error","name":"OwnableUnauthorizedAccount","inputs":[{"name":"account","type":"address","internalType":"address"}]},{"type":"error","name":"UUPSUnauthorizedCallContext","inputs":[]},{"type":"error","name":"UUPSUnsupportedProxiableUUID","inputs":[{"name":"slot","type":"bytes32","internalType":"bytes32"}]}],"bytecode":{"object":"0x60a080604052346100c257306080525f5160206138db5f395f51905f525460ff8160401c166100b3576002600160401b03196001600160401b03821601610060575b60405161381490816100c78239608051818181611b710152611ccc0152f35b6001600160401b0319166001600160401b039081175f5160206138db5f395f51905f525581527fc7f505b2f371ae2175ee4913f4499e1f2633a7b5936321eed1cdaeb6115181d290602090a15f80610041565b63f92ee8a960e01b5f5260045ffd5b5f80fdfe60a0806040526004361015610024575b50361561001a575f80fd5b6100226127c0565b005b5f3560e01c90816303fd2a451461249f575080631031a06314612482578063143e7c321461243f578063144fa6d7146123fc5780631794bb3c1461220b5780631ba900eb146121d45780631e50ee5f146121b95780631f53ac021461217757806335eb520814611eb5578063385542f014611e8b5780634b48598214611e695780634e45feb214611e485780634f1ef28614611c7d5780635000d3e514611c07578063513856c814611bc557806352d1902d14611b5f5780635740f58014611a2557806359974e38146118495780635f1ed1cf1461181f5780636031522e146117c7578063715018a61461176057806374ee82fc1461051b578063783cf332146110665780637a2d60cf146110385780638c65c81f14610fcf5780638da5cb5b14610f9b5780638dd9500214610f6d5780638ea5220f14610f465780638eb31c0f14610f1e5780639cbe5efd14610f015780639e67221414610ec9578063a435294814610e80578063a90e27c614610e42578063ad3cb1cc14610df7578063af6f151a14610dda578063b32f201314610da2578063b5838a2714610d85578063b70a58f714610c67578063bbed0e8414610c4a578063bcc8a43814610c1b578063bd85948c14610a9f578063be21cc9b14610a82578063c0d7865514610a3f578063c505371214610a22578063cb896fba146109f4578063cd7c4afc14610970578063d6e3c562146105dc578063db2e21bc14610575578063de78733c14610558578063e21b38d21461051b578063e31f1a7c146103a8578063e6ecd2d21461038d578063ed9f089314610363578063f2fde38b1461033a578063f887ea4014610312578063fc0c546a146102ea578063fc2a88c3146102cd5763fd25ef19146102ae575f61000f565b346102c9575f3660031901126102c9576020604051600a8152f35b5f80fd5b346102c9575f3660031901126102c9576020600c54604051908152f35b346102c9575f3660031901126102c9576001546040516001600160a01b039091168152602090f35b346102c9575f3660031901126102c9576002546040516001600160a01b039091168152602090f35b346102c95760203660031901126102c9576100226103566124b9565b61035e612852565b61274f565b346102c95760203660031901126102c9576004355f526015602052602060405f2054604051908152f35b346102c9575f3660031901126102c957602060405160648152f35b346102c9575f3660031901126102c9576103c66001600d541461260a565b6002600d55335f52600e6020526103e360ff60405f205416612701565b335f52600e60205260405f2060ff198154169055335f52601060205260405f20546018545f198101908111610507578082036104a8575b50506018548015610494575f190161043181612582565b81549060018060a01b039060031b1b19169055601855335f5260106020525f6040812055610460600b54612743565b600b557f3e085cc53b86c19e2e6dba628297af6b8f76c89d1384dbcc599bab2adfd62d086020604051338152a16001600d55005b634e487b7160e01b5f52603160045260245ffd5b6104b190612582565b905460039190911b1c6001600160a01b03166104f4816104d084612582565b81546001600160a01b0393841660039290921b91821b9390911b1916919091179055565b5f52601060205260405f2055808061041a565b634e487b7160e01b5f52601160045260245ffd5b346102c95760203660031901126102c9576001600160a01b0361053c6124b9565b165f52600e602052602060ff60405f2054166040519015158152f35b346102c9575f3660031901126102c9576020600954604051908152f35b346102c9575f3660031901126102c95761058d612852565b61059b6001600d541461260a565b6002600d555f51602061377f5f395f51905f52546105c39047906001600160a01b0316613257565b5f6007555f6008555f6009555f600a556001600d555f80f35b346102c95760603660031901126102c9576004356105f86124e5565b906044356001600160401b0381116102c957366023820112156102c9578060040135916001600160401b0383116102c957602482019160248436920101116102c957335f52600e60205261065260ff60405f205416612701565b805f52601160205260405f20928354151580610962575b80610953575b610678906126b4565b5f82815260136020908152604080832033845290915290205460ff161580610945575b15610913576001546040516370a0823160e01b81523360048201529390602090859060249082906001600160a01b03165afa938415610908575f946108d4575b5060045484106108a557335f52600f60205260405f2054155f14610892576064935b835f52601260205260405f209461071536858561254c565b60208151910120906107278184612683565b92604051996107358b6124f5565b338b5260ff60208c019116998a825260408c0194855260608c0195865260808c0199428b528054600160401b81101561087e576107779160018201815561265d565b61086b57600360c09b8a987fe4cfed7019186f7035e98a004dd42cdd5545a60da1e34aaa79300ac0f849bf1f9f9860049661082b9a60018060a01b039051166001600160601b0360a01b8754161786555185549060ff60a01b9060a01b169060ff60a01b191617855551600185015551600284015551910155885f52601360205260405f2060018060a01b0333165f5260205260405f20600160ff1982541617905501610824815461264f565b9055612683565b916040519687958652336020870152604086015260a060608601528160a0860152858501375f8383018501526080830152601f01601f19168101030190a1005b634e487b7160e01b5f525f60045260245ffd5b634e487b7160e01b5f52604160045260245ffd5b335f52600f60205260405f2054936106fd565b60405162461bcd60e51b8152602060048201526007602482015266686f6c64696e6760c81b6044820152606490fd5b9093506020813d602011610900575b816108f060209383612510565b810103126102c9575192866106db565b3d91506108e3565b6040513d5f823e3d90fd5b60405162461bcd60e51b815260206004820152600a602482015269189859081cda59db985b60b21b6044820152606490fd5b50600360ff8616111561069b565b50600384015460ff161561066f565b506002840154421115610669565b60203660031901126102c95760043560ff81168091036102c9573033036109c7578061099f5750610022612f4c565b600181036109b05750610022612e73565b6002036109bf57610022612c81565b610022612a41565b60405162461bcd60e51b815260206004820152600560248201526410b9b2b63360d91b6044820152606490fd5b346102c9575f3660031901126102c95760206040517310ed43c718714eb63d5aa57b78b54704e256024e8152f35b346102c9575f3660031901126102c9576020600b54604051908152f35b346102c95760203660031901126102c957610a586124b9565b610a60612852565b600280546001600160a01b0319166001600160a01b0392909216919091179055005b346102c9575f3660031901126102c9576020600754604051908152f35b346102c9575f3660031901126102c957610ab7612852565b600654805f52601160205260405f208115908115610c0c575b5015610bd857610adf9061264f565b80600655610aef60055442612676565b906040519160c083018381106001600160401b0382111761087e5760ff92600592849260405281865260208601904282526040870190815260608701905f825260808801925f845260a08901948686525f52601160205260405f20985189555160018901555160028801556003870190511515848019835416911617905551600486015551169201911660ff19825416179055610b8a6132dd565b6006545f52601460205260405f20557f278844837bcf8364a705384bf3a2812901f54155bae86dea81dd52aa5b9ec0e36040600654610bcb60055442612676565b82519182526020820152a1005b60405162461bcd60e51b815260206004820152600c60248201526b707265762070656e64696e6760a01b6044820152606490fd5b60ff9150600301541682610ad0565b346102c95760203660031901126102c9576004355f526017602052602060ff60405f2054166040519015158152f35b346102c9575f3660031901126102c9576020600454604051908152f35b346102c95760203660031901126102c9576004355f52601260205260405f20805490610c92826126ea565b91610ca06040519384612510565b8083526020830180925f5260205f205f915b838310610d31578486604051918291602083019060208452518091526040830191905f5b818110610ce4575050500390f35b91935091602060a0600192608087518580851b03815116835260ff858201511685840152604081015160408401526060810151606084015201516080820152019401910191849392610cd6565b60046020600192604051610d44816124f5565b60ff8654868060a01b038116835260a01c16838201528486015460408201526002860154606082015260038601546080820152815201920192019190610cb2565b346102c9575f3660031901126102c9576020600a54604051908152f35b346102c95760203660031901126102c9576001600160a01b03610dc36124b9565b165f52600f602052602060405f2054604051908152f35b346102c9575f3660031901126102c9576020600854604051908152f35b346102c9575f3660031901126102c957610e3e604051610e18604082612510565b60058152640352e302e360dc1b60208201526040519182916020835260208301906125ae565b0390f35b346102c95760203660031901126102c957600435610e5e612852565b61012c81101580610e74575b156102c957600555005b50615460811115610e6a565b346102c95760403660031901126102c957610e996124cf565b6004355f52601360205260405f209060018060a01b03165f52602052602060ff60405f2054166040519015158152f35b346102c95760203660031901126102c9576004358015158091036102c957610eef612852565b60ff8019601954169116176019555f80f35b346102c9575f3660031901126102c9576020600654604051908152f35b346102c9575f3660031901126102c9576003546040516001600160a01b039091168152602090f35b346102c9575f3660031901126102c9575f546040516001600160a01b039091168152602090f35b346102c9575f3660031901126102c957602060405173bb4cdb9cbd36b01bd1cbaebf2de08d9173bc095c8152f35b346102c9575f3660031901126102c9575f51602061377f5f395f51905f52546040516001600160a01b039091168152602090f35b346102c95760203660031901126102c9576004355f52601160205260c060405f20805490600181015490600281015460ff6003830154169060ff6005600485015494015416936040519586526020860152604085015215156060840152608083015260a0820152f35b346102c9575f3660031901126102c95760206040517309b44a633de9f9ebf6fb9bdd5b5629d3dd2cef138152f35b346102c95760203660031901126102c957600435611082612852565b805f52601160205260405f20805415159081611752575b81611742575b5080611738575b6110af906126b4565b6001600160a01b036110bf612885565b16604051631b4d85a560e21b81525f60048201525f81602481855afa8015610908575f9061166c575b6020915001519081471061163a57825f52601260205260405f206080906040516111128382612510565b82368237604051906111248483612510565b833683378254925f5b8481106115c157505061113f87613630565b9261114990613630565b91815161115590613630565b91815161116190613630565b91602082015161117090613630565b91602082015161117f90613630565b604082015161118d90613630565b90604084015161119c90613630565b92606001516111aa90613630565b93606001516111b890613630565b946007546111c590613630565b966008546111d290613630565b986009546111df90613630565b9a600a546111ec90613630565b9c6111f56132dd565b6111fe90613630565b9e6040516080526080516020017f596f75206172652074686520486976654d696e64207472656173757279206f7290526080516040017f61636c65206f6e204253432e2043686f6f73652065786163746c79206f6e652090526080516060017f616374696f6e3a20455850414e442830292c20434f4e54524143542831292c209052608051017f444953545249425554452832292c204255594241434b2833292e2000000000009052608051609b016502937bab732160d51b90528051602081920160805160a1015e6080510160a18101692e205369676e616c733d60b01b90528151602081930160ab83015e0160a101600a8101752e20457870616e6420636f756e742f7765696768743d60501b905281516020819301602083015e01600a0160168101602f60f81b905281516020819301601783015e01601601600181016a2e20436f6e74726163743d60a81b905281516020819301600c83015e01600101600b8101602f60f81b905281516020819301600c83015e01600b01600181016c2e20446973747269627574653d60981b905281516020819301600e83015e01600101600d8101602f60f81b905281516020819301600e83015e01600d0160018101692e204275796261636b3d60b01b905281516020819301600b83015e01600101600a8101602f60f81b905281516020819301600b83015e01600a01600181017f2e20506f6f6c73207265776172642f6469766964656e642f657865637574696f905260218101656e2f6465763d60d01b905281516020819301602783015e0160010160268101602f60f81b905281516020819301602783015e0160260160018101602f60f81b905281516020819301600283015e0160010160018101602f60f81b905281516020819301600283015e01600101600181017f2e20546f6b656e20707269636520696e2057424e422070657220316531382074905260218101646f6b656e3d60d81b905281516020819301602683015e01600101602581017f2e2043686f6f736520746865206265737420747265617375727920616374696f90526045810161371760f11b9052608051900360250160028101608051526022016080519061152c91612510565b604051809263464d5bc560e11b8252600482015f905260248201606090528180606481016080519061155d916125ae565b6004604483015203915a94602095f1908115610908575f9161158f575b5080600c555f52601660205260405f20555f80f35b90506020813d6020116115b9575b816115aa60209383612510565b810103126102c957518261157a565b3d915061159d565b8060ff6115d06001938561265d565b505460a01c166115f36115ec6115e683886132cc565b5161264f565b91866132cc565b526002611600828561265d565b50015461163361162c60ff611615858861265d565b505460a01c1692611626848a6132cc565b51612676565b91876132cc565b520161112d565b60405162461bcd60e51b815260206004820152600a6024820152696f7261636c652066656560b01b6044820152606490fd5b503d805f833e61167c8183612510565b8101906020818303126102c9578051906001600160401b0382116102c957016060818303126102c95760405190606082018281106001600160401b0382111761087e5760405280516001600160401b0381116102c957810183601f820112156102c9578051916116eb83612531565b946116f96040519687612510565b838652602084840101116102c9576020945f868561172e9682604097018386015e830101528452848101518585015201612642565b60408201526110e8565b50600c54156110a6565b60ff91506003015416158261109f565b600281015442119150611099565b346102c9575f3660031901126102c957611778612852565b5f51602061377f5f395f51905f5280546001600160a01b031981169091555f906001600160a01b03167f8be0079c531659141344cd1fd0a4f28419497f9722a3daafe3b4186f6b6457e08280a3005b346102c9575f3660031901126102c9576117df612852565b6117ed6001600d541461260a565b6002600d55611818600a545f600a5560018060a01b035f51602061377f5f395f51905f525416613257565b6001600d55005b346102c95760203660031901126102c9576004355f526014602052602060405f2054604051908152f35b346102c95760203660031901126102c95760043561186b6001600d541461260a565b6002600d55805f52601160205260ff600360405f20015416156119f15760075480156119bf575f828152601260205260408120805491805b83811061198b5750801561195a575f6007555f5b8381106118f5577f29e98ba00d07f171959c4ddcd2f3020debc7c52cf537a034d7e664340d098c6c6040878782519182526020820152a16001600d55005b806119026001928561265d565b50828060a01b039054165f52600f60205261192a8361192560405f205489612683565b612696565b80611937575b50016118b7565b61195490611945838761265d565b50848060a01b03905416613257565b87611930565b60405162461bcd60e51b81526020600482015260096024820152681b9bc81dd95a59da1d60ba1b6044820152606490fd5b906119b860019161199c848661265d565b50838060a01b039054165f52600f60205260405f205490612676565b91016118a3565b60405162461bcd60e51b815260206004820152600a6024820152696e6f207265776172647360b01b6044820152606490fd5b60405162461bcd60e51b815260206004820152600c60248201526b1b9bdd08195e1958dd5d195960a21b6044820152606490fd5b346102c95760203660031901126102c957600435805f52601160205260405f2060ff60038201541615611b2c57815f52601760205260ff60405f205416611af4578160ff60056040937f1ea4bf9d1cea106137b2aadf6674d45d74278f6849aee363f9d779707045ec89955f526017602052845f206001841982541617905501541680155f14611ac75750611ab8612f4c565b815190815260016020820152a1005b60018103611add5750611ad8612e73565b611ab8565b600203611aec57611ad8612c81565b611ad8612a41565b60405162461bcd60e51b815260206004820152601060248201526f185b1c9958591e48195e1958dd5d195960821b6044820152606490fd5b60405162461bcd60e51b815260206004820152600b60248201526a1b9bdd08191958da59195960aa1b6044820152606490fd5b346102c9575f3660031901126102c9577f00000000000000000000000000000000000000000000000000000000000000006001600160a01b03163003611bb65760206040515f51602061379f5f395f51905f528152f35b63703e46dd60e11b5f5260045ffd5b346102c95760203660031901126102c9576004356018548110156102c957611bee602091612582565b905460405160039290921b1c6001600160a01b03168152f35b60203660031901126102c957600435611c316001600160a01b03611c29612885565b1633146125d2565b600c548103611c4f575f5260166020525f60408120555f600c555f80f35b60405162461bcd60e51b8152602060048201526006602482015265189859081a5960d21b6044820152606490fd5b60403660031901126102c957611c916124b9565b6024356001600160401b0381116102c957366023820112156102c957611cc190369060248160040135910161254c565b906001600160a01b037f000000000000000000000000000000000000000000000000000000000000000016308114908115611e26575b50611bb657611d04612852565b6040516352d1902d60e01b81526001600160a01b0382169290602081600481875afa5f9181611df2575b50611d465783634c9c8ce360e01b5f5260045260245ffd5b805f51602061379f5f395f51905f52859203611de05750823b15611dce575f51602061379f5f395f51905f5280546001600160a01b031916821790557fbc7cd75a20ee27fd9adebab32041f755214dbc6bffa90cc0225b39da2e5c2d3b5f80a2805115611db657610022916136f2565b505034611dbf57005b63b398979f60e01b5f5260045ffd5b634c9c8ce360e01b5f5260045260245ffd5b632a87526960e21b5f5260045260245ffd5b9091506020813d602011611e1e575b81611e0e60209383612510565b810103126102c957519085611d2e565b3d9150611e01565b5f51602061379f5f395f51905f52546001600160a01b03161415905083611cf7565b346102c95760203660031901126102c957611e61612852565b600480359055005b346102c9575f3660031901126102c957602060ff601954166040519015158152f35b346102c95760203660031901126102c9576004355f526016602052602060405f2054604051908152f35b346102c9575f3660031901126102c957611ed36001600d541461260a565b6002600d55335f52600e60205260ff60405f205416612145576001546001600160a01b031680156121185760ff6019541661206e575b6020602491604051928380926370a0823160e01b82523360048301525afa908115610908575f9161203c575b506004541161200957335f52600e60205260405f20600160ff19825416179055335f52600f60205260405f205415611ff5575b601854335f5260106020528060405f2055600160401b81101561087e57611f98816001611fb69301601855612582565b81546001600160a01b0360039290921b91821b19163390911b179055565b611fc1600b5461264f565b600b557f82d0829d9d481e4cb9913897f9b9c903271c4db68c7b3324071d2a7e3b2c5ff06020604051338152a16001600d55005b335f52600f602052606460405f2055611f68565b60405162461bcd60e51b815260206004820152600b60248201526a6c6f7720686f6c64696e6760a81b6044820152606490fd5b90506020813d602011612066575b8161205760209383612510565b810103126102c9575181611f35565b3d915061204a565b6003546040516307feec1960e21b815233600482015290602090829060249082906001600160a01b03165afa908115610908575f916120de575b50611f095760405162461bcd60e51b81526020600482015260096024820152681b9bdd081859d95b9d60ba1b6044820152606490fd5b90506020813d602011612110575b816120f960209383612510565b810103126102c95761210a90612642565b826120a8565b3d91506120ec565b60405162461bcd60e51b81526020600482015260056024820152643a37b5b2b760d91b6044820152606490fd5b60405162461bcd60e51b815260206004820152600a6024820152691c9959da5cdd195c995960b21b6044820152606490fd5b346102c95760203660031901126102c9576121906124b9565b612198612852565b5f80546001600160a01b0319166001600160a01b0392909216919091179055005b346102c9575f3660031901126102c957602060405160c88152f35b346102c95760403660031901126102c9576100226121f06124e5565b6122036001600160a01b03611c29612885565b6004356128fe565b346102c95760603660031901126102c9576122246124b9565b61222c6124cf565b5f5160206137bf5f395f51905f525460ff8160401c1615926001600160401b038216801590816123f4575b60011490816123ea575b1590816123e1575b506123d25767ffffffffffffffff1982166001175f5160206137bf5f395f51905f52556122a791846123a6575b5061229f613453565b61035e613453565b60018060a01b03166001600160601b0360a01b600154161760015560443560045573d82913909e136779e854302e783ecdb06bfc7ee26001600160601b0360a01b5f5416175f557310ed43c718714eb63d5aa57b78b54704e256024e6001600160601b0360a01b60025416176002557309b44a633de9f9ebf6fb9bdd5b5629d3dd2cef136001600160601b0360a01b60035416176003556103846005556001600d5561234f57005b68ff0000000000000000195f5160206137bf5f395f51905f5254165f5160206137bf5f395f51905f52557fc7f505b2f371ae2175ee4913f4499e1f2633a7b5936321eed1cdaeb6115181d2602060405160018152a1005b68ffffffffffffffffff191668010000000000000001175f5160206137bf5f395f51905f525584612296565b63f92ee8a960e01b5f5260045ffd5b90501585612269565b303b159150612261565b859150612257565b346102c95760203660031901126102c9576124156124b9565b61241d612852565b600180546001600160a01b0319166001600160a01b0392909216919091179055005b346102c95760203660031901126102c9576124586124b9565b612460612852565b600380546001600160a01b0319166001600160a01b0392909216919091179055005b346102c9575f3660031901126102c9576020600554604051908152f35b346102c9575f3660031901126102c9578061dead60209252f35b600435906001600160a01b03821682036102c957565b602435906001600160a01b03821682036102c957565b6024359060ff821682036102c957565b60a081019081106001600160401b0382111761087e57604052565b90601f801991011681019081106001600160401b0382111761087e57604052565b6001600160401b03811161087e57601f01601f191660200190565b92919261255882612531565b916125666040519384612510565b8294818452818301116102c9578281602093845f960137010152565b60185481101561259a5760185f5260205f2001905f90565b634e487b7160e01b5f52603260045260245ffd5b805180835260209291819084018484015e5f828201840152601f01601f1916010190565b156125d957565b60405162461bcd60e51b815260206004820152600960248201526810b83937bb34b232b960b91b6044820152606490fd5b1561261157565b60405162461bcd60e51b81526020600482015260096024820152681c99595b9d1c985b9d60ba1b6044820152606490fd5b519081151582036102c957565b5f1981146105075760010190565b805482101561259a575f5260205f209060021b01905f90565b9190820180921161050757565b8181029291811591840414171561050757565b81156126a0570490565b634e487b7160e01b5f52601260045260245ffd5b156126bb57565b60405162461bcd60e51b81526020600482015260076024820152661a5b9d985b1a5960ca1b6044820152606490fd5b6001600160401b03811161087e5760051b60200190565b1561270857565b60405162461bcd60e51b8152602060048201526006602482015265085859d95b9d60d21b6044820152606490fd5b9190820391821161050757565b8015610507575f190190565b6001600160a01b031680156127ad575f51602061377f5f395f51905f5280546001600160a01b0319811683179091556001600160a01b03167f8be0079c531659141344cd1fd0a4f28419497f9722a3daafe3b4186f6b6457e05f80a3565b631e4fbdf760e01b5f525f60045260245ffd5b3415612850576028340234810460280361050757606490046127e481600754612676565b600755601e3402348104601e03610507576064900461280581600854612676565b60085560143402913483046014036105075761283e6128439261283e606461284b96049361283585600954612676565b60095534612736565b612736565b600a54612676565b600a55565b565b5f51602061377f5f395f51905f52546001600160a01b0316330361287257565b63118cdaa760e01b5f523360045260245ffd5b603846146128e657606146146128ce5760405162461bcd60e51b81526020600482015260116024820152703ab739bab83837b93a32b21031b430b4b760791b6044820152606490fd5b73fbee0a1c921f6f4dadfadd102b8276175d1b518d90565b73aee3a7ca6fe6b53f6c32a3e8407ec5a9df8b7e3990565b90600c5482036129b2577f93201d83ff5cd58eae31e98bcf8f9b382b8bc7e906c63a7c903cac3797a5d4019181600360ff60409416116129ab575b60ff905f600c55825f526016602052835f2054925f5260166020525f84812055825f5260116020526005845f2060038101600185198254161790550182821683198254161790556129886132dd565b835f526015602052845f205561299d8361347e565b8351928352166020820152a1565b505f612939565b5050565b80511561259a5760200190565b80516001101561259a5760400190565b90602080835192838152019201905f5b8181106129f05750505090565b82516001600160a01b03168452602093840193909201916001016129e3565b612a2d606092959493955f83526080602084015260808301906129d3565b6001600160a01b0390951660408201520152565b6009545f9080158015612c6e575b6129b2575f6009556001546040516370a0823160e01b815230600482015291906001600160a01b0316602083602481845afa928315610908575f93612c3a575b5060405190612a9f606083612510565b60028252604036602084013773bb4cdb9cbd36b01bd1cbaebf2de08d9173bc095c612ac9836129b6565b52612ad3826129c3565b526002546001600160a01b031690813b156102c9575f91612b0e9160405194858094819363b6f9de9560e01b83524290309060048501612a0f565b03925af1801561090857612c25575b506001546040516370a0823160e01b81523060048201526001600160a01b0390911691602082602481865afa8015612c1a578490612be6575b612b609250612736565b80612b6a57505050565b82916044602092604051958693849263a9059cbb60e01b845261dead600485015260248401525af18015612bd957612ba0575050565b6020823d602011612bd1575b81612bb960209383612510565b81010312612bce5750612bcb90612642565b50565b80fd5b3d9150612bac565b50604051903d90823e3d90fd5b506020823d602011612c12575b81612c0060209383612510565b810103126102c957612b609151612b56565b3d9150612bf3565b6040513d86823e3d90fd5b612c329192505f90612510565b5f905f612b1d565b9092506020813d602011612c66575b81612c5660209383612510565b810103126102c95751915f612a8f565b3d9150612c49565b506001546001600160a01b031615612a4f565b60085480158015612e69575b612bcb576018545f805b828110612d9857508015612d93575f6008555f5b828110612cb85750505050565b612cc181612582565b60018060a01b0391549060031b1c1690815f52600e60205260ff60405f20541615612d8a576001546040516370a0823160e01b8152600481018490529290602090849060249082906001600160a01b03165afa80156109085784935f91612d53575b50600193611925612d349289612683565b80612d43575b50505b01612cab565b612d4c91613257565b5f80612d3a565b9350506020833d8211612d82575b81612d6e60209383612510565b810103126102c95791518392906001612d23565b3d9150612d61565b60019150612d3d565b505050565b612da181612582565b60018060a01b0391549060031b1c165f52600e60205260ff60405f205416612dcc575b600101612c97565b6001549091906001600160a01b03166020612de684612582565b90546040516370a0823160e01b815260039290921b1c6001600160a01b0316600482015291829060249082905afa908115610908575f91612e37575b50612e2f90600192612676565b919050612dc4565b90506020813d8211612e61575b81612e5160209383612510565b810103126102c957516001612e22565b3d9150612e44565b50600b5415612c8d565b6009548060011c9081158015612f39575b6129b25781612e9291612736565b600955604051612ea3606082612510565b60028152604036602083013773bb4cdb9cbd36b01bd1cbaebf2de08d9173bc095c612ecd826129b6565b526001546001600160a01b0316612ee3826129c3565b526002546001600160a01b031690813b156102c9575f91612f1e9160405194858094819363b6f9de9560e01b83524290309060048501612a0f565b03925af1801561090857612f2f5750565b5f61285091612510565b506001546001600160a01b031615612e84565b6009545f908060011c90600282108015613244575b612d935780612f7383612f8093612736565b60095560021c8092612736565b6001546040516370a0823160e01b81523060048201526001600160a01b0390911692602082602481875afa918215610908575f92613210575b50604051606094612fca8683612510565b60028252601f19860136602084013773bb4cdb9cbd36b01bd1cbaebf2de08d9173bc095c612ff7836129b6565b52613001826129c3565b526002546001600160a01b031690813b156102c9575f9161303c9160405194858094819363b6f9de9560e01b83524290309060048501612a0f565b03925af18015610908576131fb575b506001546040516370a0823160e01b81523060048201526001600160a01b0390911691602082602481865afa80156131f05786906131bc575b61308e9250612736565b90811580156131b4575b6131ad5760025460405163095ea7b360e01b81526001600160a01b03909116600482015260248101839052906020908290604490829089905af180156131a25790849291613162575b5060025460015460405163f305d71960e01b81526001600160a01b039182166004820152602481019390935260448301879052606483018790523060848401524260a48401529193849260c492849291165af161313d57505050565b813d831161315b575b6131508183612510565b81010312612bce5750565b503d613146565b9091506020813d60201161319a575b8161317e60209383612510565b8101031261319657906131918492612642565b6130e1565b8480fd5b3d9150613171565b6040513d87823e3d90fd5b5050505050565b508215613098565b506020823d6020116131e8575b816131d660209383612510565b810103126102c95761308e9151613084565b3d91506131c9565b6040513d88823e3d90fd5b6132089194505f90612510565b5f925f61304b565b9091506020813d60201161323c575b8161322c60209383612510565b810103126102c95751905f612fb9565b3d915061321f565b506001546001600160a01b031615612f61565b81156129b2575f80809381935af13d156132c7573d61327581612531565b906132836040519283612510565b81525f60203d92013e5b1561329457565b60405162461bcd60e51b815260206004820152600b60248201526a1cd95b990819985a5b195960aa1b6044820152606490fd5b61328d565b90600481101561259a5760051b0190565b6001546001600160a01b031680158015613440575b6133a9575f61337b916040519061330a606083612510565b60028252604036602084013761331f826129b6565b5273bb4cdb9cbd36b01bd1cbaebf2de08d9173bc095c61333e826129c3565b5260018060a01b0360025416604051808095819463d06ca61f60e01b8352670de0b6b3a764000060048401526040602484015260448301906129d3565b03915afa5f91816133ae575b5061339157505f90565b60018151115f146133a9576133a5906129c3565b5190565b505f90565b9091503d805f833e6133c08183612510565b8101906020818303126102c9578051906001600160401b0382116102c957019080601f830112156102c95781516133f6816126ea565b926134046040519485612510565b81845260208085019260051b8201019283116102c957602001905b82821061343057505050905f613387565b815181526020918201910161341f565b506002546001600160a01b0316156132f2565b60ff5f5160206137bf5f395f51905f525460401c161561346f57565b631afcd79f60e31b5f5260045ffd5b90815f52601260205260405f209182541561362b57805f52601560205260405f2054905f52601460205260405f20541115805f14613623575f905b1561361b576002925b5f5b8154811015613614576134d7818361265d565b50546001600160a01b03165f818152600f602052604090205490919060ff6134ff838661265d565b505460a01c1660ff86161480156135f7575b1561358a57600a8101809111610507576001927f16d0848e499fa9fd0f755c0563c69a05617a0663a704dabd1933f6f75fa3f2199160c8811115613585575060c85b905b5f818152600f602090815260409182902084905581516001600160a01b039093168352820192909252a1016134c4565b613553565b600f8111156135cb576004198101908111610507576001927f16d0848e499fa9fd0f755c0563c69a05617a0663a704dabd1933f6f75fa3f219915b90613555565b507f16d0848e499fa9fd0f755c0563c69a05617a0663a704dabd1933f6f75fa3f219600192600a6135c5565b5060ff613604838661265d565b505460a01c1660ff881614613511565b5050509050565b6003926134c2565b6001906134b9565b509050565b80156136d25780815f925b6136bc575061364982612531565b916136576040519384612510565b80835281601f1961366783612531565b013660208601375b61367857505090565b600a820660300190816030116105075761369190612743565b91835183101561259a57600a9160f81b6001600160f81b0319165f1a8484016020015304908161366f565b90916136c9600a9161264f565b9291048061363b565b506040516136e1604082612510565b60018152600360fc1b602082015290565b905f8091602081519101845af4808061376b575b156137265750506040513d81523d5f602083013e60203d82010160405290565b1561374b57639996b31560e01b5f9081526001600160a01b0391909116600452602490fd5b3d1561375c576040513d5f823e3d90fd5b63d6bda27560e01b5f5260045ffd5b503d1515806137065750813b151561370656fe9016d09d72d40fdae2fd8ceac6b6234c7706214fd39c1cd1e609a0528c199300360894a13ba1a3210667c828492db98dca3e2076cc3735a920a3ca505d382bbcf0c57e16840df040f15088dc2f81fe391c3923bec73e23a9662efc9c229c6a00a264697066735822122052388adcf74b91ed6b0905f721075f7c0682969b66dedb6e0d1820167c8e764d64736f6c634300081c0033f0c57e16840df040f15088dc2f81fe391c3923bec73e23a9662efc9c229c6a00","linkReferences":{}},"methodIdentifiers":{"DEAD()":"03fd2a45","DEFAULT_AGENT_IDENTIFIER()":"7a2d60cf","DEFAULT_ROUTER()":"cb896fba","SCORE_INIT()":"e6ecd2d2","SCORE_MAX()":"1e50ee5f","SCORE_MIN()":"fd25ef19","UPGRADE_INTERFACE_VERSION()":"ad3cb1cc","WBNB()":"8dd95002","_doExecute(uint8)":"cd7c4afc","accuracyScore(address)":"b32f2013","agentIdentifier()":"8eb31c0f","agents(uint256)":"513856c8","claimDevPool()":"6031522e","currentRoundId()":"9cbe5efd","devPool()":"b5838a27","devWallet()":"8ea5220f","distributeRewards(uint256)":"59974e38","emergencyWithdraw()":"db2e21bc","executeRound(uint256)":"783cf332","executionDone(uint256)":"bcc8a438","executionPool()":"de78733c","fulfillReasoning(uint256,uint8)":"1ba900eb","getSignals(uint256)":"b70a58f7","hasSubmittedSignal(uint256,address)":"a4352948","holderDividendPool()":"af6f151a","initialize(address,address,uint256)":"1794bb3c","isRegisteredAgent(address)":"e21b38d2","lastRequestId()":"fc2a88c3","manualExecute(uint256)":"5740f580","minHolding()":"bbed0e84","onFlapAIRequestRefunded(uint256)":"5000d3e5","owner()":"8da5cb5b","proxiableUUID()":"52d1902d","registerAgent()":"35eb5208","registeredAgents(address)":"74ee82fc","renounceOwnership()":"715018a6","requestToRound(uint256)":"385542f0","requireAgentId()":"4b485982","roundEndPrice(uint256)":"ed9f0893","roundStartPrice(uint256)":"5f1ed1cf","roundWindow()":"1031a063","rounds(uint256)":"8c65c81f","router()":"f887ea40","setAgentIdentifier(address)":"143e7c32","setDevWallet(address)":"1f53ac02","setMinHolding(uint256)":"4e45feb2","setRequireAgentId(bool)":"9e672214","setRoundWindow(uint256)":"a90e27c6","setRouter(address)":"c0d78655","setToken(address)":"144fa6d7","signalRewardPool()":"be21cc9b","startNewRound()":"bd85948c","submitSignal(uint256,uint8,string)":"d6e3c562","token()":"fc0c546a","totalAgents()":"c5053712","transferOwnership(address)":"f2fde38b","unregisterAgent()":"e31f1a7c","upgradeToAndCall(address,bytes)":"4f1ef286"},"id":14}