{"abi":[{"type":"constructor","inputs":[{"name":"_owner","type":"address","internalType":"address"},{"name":"_token","type":"address","internalType":"address"},{"name":"_minHolding","type":"uint256","internalType":"uint256"}],"stateMutability":"nonpayable"},{"type":"receive","stateMutability":"payable"},{"type":"function","name":"DEAD","inputs":[],"outputs":[{"name":"","type":"address","internalType":"address"}],"stateMutability":"view"},{"type":"function","name":"DEFAULT_AGENT_IDENTIFIER","inputs":[],"outputs":[{"name":"","type":"address","internalType":"address"}],"stateMutability":"view"},{"type":"function","name":"DEFAULT_ROUTER","inputs":[],"outputs":[{"name":"","type":"address","internalType":"address"}],"stateMutability":"view"},{"type":"function","name":"SCORE_INIT","inputs":[],"outputs":[{"name":"","type":"uint256","internalType":"uint256"}],"stateMutability":"view"},{"type":"function","name":"SCORE_MAX","inputs":[],"outputs":[{"name":"","type":"uint256","internalType":"uint256"}],"stateMutability":"view"},{"type":"function","name":"SCORE_MIN","inputs":[],"outputs":[{"name":"","type":"uint256","internalType":"uint256"}],"stateMutability":"view"},{"type":"function","name":"WBNB","inputs":[],"outputs":[{"name":"","type":"address","internalType":"address"}],"stateMutability":"view"},{"type":"function","name":"acceptOwnership","inputs":[],"outputs":[],"stateMutability":"nonpayable"},{"type":"function","name":"accuracyScore","inputs":[{"name":"","type":"address","internalType":"address"}],"outputs":[{"name":"","type":"uint256","internalType":"uint256"}],"stateMutability":"view"},{"type":"function","name":"agentIdentifier","inputs":[],"outputs":[{"name":"","type":"address","internalType":"address"}],"stateMutability":"view"},{"type":"function","name":"agents","inputs":[{"name":"","type":"uint256","internalType":"uint256"}],"outputs":[{"name":"","type":"address","internalType":"address"}],"stateMutability":"view"},{"type":"function","name":"claimDevPool","inputs":[],"outputs":[],"stateMutability":"nonpayable"},{"type":"function","name":"currentRoundId","inputs":[],"outputs":[{"name":"","type":"uint256","internalType":"uint256"}],"stateMutability":"view"},{"type":"function","name":"description","inputs":[],"outputs":[{"name":"","type":"string","internalType":"string"}],"stateMutability":"pure"},{"type":"function","name":"devPool","inputs":[],"outputs":[{"name":"","type":"uint256","internalType":"uint256"}],"stateMutability":"view"},{"type":"function","name":"devWallet","inputs":[],"outputs":[{"name":"","type":"address","internalType":"address"}],"stateMutability":"view"},{"type":"function","name":"distributeRewards","inputs":[{"name":"roundId","type":"uint256","internalType":"uint256"}],"outputs":[],"stateMutability":"nonpayable"},{"type":"function","name":"emergencyWithdraw","inputs":[],"outputs":[],"stateMutability":"nonpayable"},{"type":"function","name":"executeRound","inputs":[{"name":"roundId","type":"uint256","internalType":"uint256"}],"outputs":[],"stateMutability":"nonpayable"},{"type":"function","name":"executionPool","inputs":[],"outputs":[{"name":"","type":"uint256","internalType":"uint256"}],"stateMutability":"view"},{"type":"function","name":"fulfillReasoning","inputs":[{"name":"requestId","type":"uint256","internalType":"uint256"},{"name":"choice","type":"uint8","internalType":"uint8"}],"outputs":[],"stateMutability":"nonpayable"},{"type":"function","name":"getSignals","inputs":[{"name":"roundId","type":"uint256","internalType":"uint256"}],"outputs":[{"name":"","type":"tuple[]","internalType":"struct HiveMindTreasury.Signal[]","components":[{"name":"agent","type":"address","internalType":"address"},{"name":"signal","type":"uint8","internalType":"uint8"},{"name":"reasoningHash","type":"bytes32","internalType":"bytes32"},{"name":"weight","type":"uint256","internalType":"uint256"},{"name":"timestamp","type":"uint256","internalType":"uint256"}]}],"stateMutability":"view"},{"type":"function","name":"hasSubmittedSignal","inputs":[{"name":"","type":"uint256","internalType":"uint256"},{"name":"","type":"address","internalType":"address"}],"outputs":[{"name":"","type":"bool","internalType":"bool"}],"stateMutability":"view"},{"type":"function","name":"holderDividendPool","inputs":[],"outputs":[{"name":"","type":"uint256","internalType":"uint256"}],"stateMutability":"view"},{"type":"function","name":"isRegisteredAgent","inputs":[{"name":"agent","type":"address","internalType":"address"}],"outputs":[{"name":"","type":"bool","internalType":"bool"}],"stateMutability":"view"},{"type":"function","name":"lastRequestId","inputs":[],"outputs":[{"name":"","type":"uint256","internalType":"uint256"}],"stateMutability":"view"},{"type":"function","name":"manualExecute","inputs":[{"name":"roundId","type":"uint256","internalType":"uint256"}],"outputs":[],"stateMutability":"nonpayable"},{"type":"function","name":"minHolding","inputs":[],"outputs":[{"name":"","type":"uint256","internalType":"uint256"}],"stateMutability":"view"},{"type":"function","name":"onFlapAIRequestRefunded","inputs":[{"name":"requestId","type":"uint256","internalType":"uint256"}],"outputs":[],"stateMutability":"payable"},{"type":"function","name":"owner","inputs":[],"outputs":[{"name":"","type":"address","internalType":"address"}],"stateMutability":"view"},{"type":"function","name":"pendingOwner","inputs":[],"outputs":[{"name":"","type":"address","internalType":"address"}],"stateMutability":"view"},{"type":"function","name":"registerAgent","inputs":[],"outputs":[],"stateMutability":"nonpayable"},{"type":"function","name":"registeredAgents","inputs":[{"name":"","type":"address","internalType":"address"}],"outputs":[{"name":"","type":"bool","internalType":"bool"}],"stateMutability":"view"},{"type":"function","name":"requestToRound","inputs":[{"name":"","type":"uint256","internalType":"uint256"}],"outputs":[{"name":"","type":"uint256","internalType":"uint256"}],"stateMutability":"view"},{"type":"function","name":"roundEndPrice","inputs":[{"name":"","type":"uint256","internalType":"uint256"}],"outputs":[{"name":"","type":"uint256","internalType":"uint256"}],"stateMutability":"view"},{"type":"function","name":"roundStartPrice","inputs":[{"name":"","type":"uint256","internalType":"uint256"}],"outputs":[{"name":"","type":"uint256","internalType":"uint256"}],"stateMutability":"view"},{"type":"function","name":"roundWindow","inputs":[],"outputs":[{"name":"","type":"uint256","internalType":"uint256"}],"stateMutability":"view"},{"type":"function","name":"rounds","inputs":[{"name":"","type":"uint256","internalType":"uint256"}],"outputs":[{"name":"roundId","type":"uint256","internalType":"uint256"},{"name":"startTime","type":"uint256","internalType":"uint256"},{"name":"signalDeadline","type":"uint256","internalType":"uint256"},{"name":"executed","type":"bool","internalType":"bool"},{"name":"totalSignals","type":"uint256","internalType":"uint256"},{"name":"finalDecision","type":"uint8","internalType":"uint8"}],"stateMutability":"view"},{"type":"function","name":"router","inputs":[],"outputs":[{"name":"","type":"address","internalType":"address"}],"stateMutability":"view"},{"type":"function","name":"setAgentIdentifier","inputs":[{"name":"_agentIdentifier","type":"address","internalType":"address"}],"outputs":[],"stateMutability":"nonpayable"},{"type":"function","name":"setMinHolding","inputs":[{"name":"_minHolding","type":"uint256","internalType":"uint256"}],"outputs":[],"stateMutability":"nonpayable"},{"type":"function","name":"setRoundWindow","inputs":[{"name":"_window","type":"uint256","internalType":"uint256"}],"outputs":[],"stateMutability":"nonpayable"},{"type":"function","name":"setRouter","inputs":[{"name":"_router","type":"address","internalType":"address"}],"outputs":[],"stateMutability":"nonpayable"},{"type":"function","name":"setToken","inputs":[{"name":"_token","type":"address","internalType":"address"}],"outputs":[],"stateMutability":"nonpayable"},{"type":"function","name":"signalRewardPool","inputs":[],"outputs":[{"name":"","type":"uint256","internalType":"uint256"}],"stateMutability":"view"},{"type":"function","name":"startNewRound","inputs":[],"outputs":[],"stateMutability":"nonpayable"},{"type":"function","name":"submitSignal","inputs":[{"name":"roundId","type":"uint256","internalType":"uint256"},{"name":"signal","type":"uint8","internalType":"uint8"},{"name":"reasoning","type":"string","internalType":"string"}],"outputs":[],"stateMutability":"nonpayable"},{"type":"function","name":"token","inputs":[],"outputs":[{"name":"","type":"address","internalType":"address"}],"stateMutability":"view"},{"type":"function","name":"totalAgents","inputs":[],"outputs":[{"name":"","type":"uint256","internalType":"uint256"}],"stateMutability":"view"},{"type":"function","name":"transferOwnership","inputs":[{"name":"newOwner","type":"address","internalType":"address"}],"outputs":[],"stateMutability":"nonpayable"},{"type":"function","name":"unregisterAgent","inputs":[],"outputs":[],"stateMutability":"nonpayable"},{"type":"event","name":"AccuracyUpdated","inputs":[{"name":"agent","type":"address","indexed":false,"internalType":"address"},{"name":"newScore","type":"uint256","indexed":false,"internalType":"uint256"}],"anonymous":false},{"type":"event","name":"AgentRegistered","inputs":[{"name":"agent","type":"address","indexed":false,"internalType":"address"}],"anonymous":false},{"type":"event","name":"AgentUnregistered","inputs":[{"name":"agent","type":"address","indexed":false,"internalType":"address"}],"anonymous":false},{"type":"event","name":"DevFee","inputs":[{"name":"amount","type":"uint256","indexed":false,"internalType":"uint256"}],"anonymous":false},{"type":"event","name":"OwnershipTransferStarted","inputs":[{"name":"previousOwner","type":"address","indexed":true,"internalType":"address"},{"name":"newOwner","type":"address","indexed":true,"internalType":"address"}],"anonymous":false},{"type":"event","name":"OwnershipTransferred","inputs":[{"name":"previousOwner","type":"address","indexed":true,"internalType":"address"},{"name":"newOwner","type":"address","indexed":true,"internalType":"address"}],"anonymous":false},{"type":"event","name":"RewardsDistributed","inputs":[{"name":"roundId","type":"uint256","indexed":false,"internalType":"uint256"},{"name":"totalRewards","type":"uint256","indexed":false,"internalType":"uint256"}],"anonymous":false},{"type":"event","name":"RoundExecuted","inputs":[{"name":"roundId","type":"uint256","indexed":false,"internalType":"uint256"},{"name":"decision","type":"uint8","indexed":false,"internalType":"uint8"}],"anonymous":false},{"type":"event","name":"RoundStarted","inputs":[{"name":"roundId","type":"uint256","indexed":false,"internalType":"uint256"},{"name":"signalDeadline","type":"uint256","indexed":false,"internalType":"uint256"}],"anonymous":false},{"type":"event","name":"SignalSubmitted","inputs":[{"name":"roundId","type":"uint256","indexed":false,"internalType":"uint256"},{"name":"agent","type":"address","indexed":false,"internalType":"address"},{"name":"signal","type":"uint8","indexed":false,"internalType":"uint8"},{"name":"reasoning","type":"string","indexed":false,"internalType":"string"},{"name":"weight","type":"uint256","indexed":false,"internalType":"uint256"}],"anonymous":false},{"type":"error","name":"FlapAIConsumerOnlyProvider","inputs":[]},{"type":"error","name":"FlapAIConsumerUnsupportedChain","inputs":[{"name":"chainId","type":"uint256","internalType":"uint256"}]},{"type":"error","name":"UnsupportedChain","inputs":[{"name":"chainId","type":"uint256","internalType":"uint256"}]}],"bytecode":{"object":"0x60803461012557601f61348138819003918201601f19168301916001600160401b0383118484101761012957808492606094604052833981010312610125576100478161013d565b9060406100566020830161013d565b9101516103845f55600580546001600160a01b03199081167310ed43c718714eb63d5aa57b78b54704e256024e17909155600680549091167309b44a633de9f9ebf6fb9bdd5b5629d3dd2cef131790556001600f55916001600160a01b0381166101205750335b600180546001600160a01b03199081166001600160a01b0393841617909155600480548216939092169290921790556007919091556002805490911673d82913909e136779e854302e783ecdb06bfc7ee217905560405161332f90816101528239f35b6100bd565b5f80fd5b634e487b7160e01b5f52604160045260245ffd5b51906001600160a01b03821682036101255756fe60a0806040526004361015610024575b50361561001a575f80fd5b6100226123e9565b005b5f3560e01c90816303fd2a4514612125575080631031a06314612109578063143e7c32146120b9578063144fa6d7146120695780631ba900eb14611f7e5780631e50ee5f14611f6357806335eb520814611cab578063385542f014611c815780634e45feb214611c535780635000d3e514611bfc578063513856c814611bba5780635740f58014611ad257806359974e38146118e15780635f1ed1cf146118b75780636031522e146118655780637284e416146117e957806374ee82fc14610544578063783cf3321461109457806379ba509714610ff45780637a2d60cf14610fc65780638c65c81f14610f5d5780638da5cb5b14610f355780638dd9500214610f075780638ea5220f14610edf5780638eb31c0f14610eb75780639cbe5efd14610e9a578063a435294814610e46578063a90e27c614610dcf578063af6f151a14610db2578063b32f201314610d7a578063b5838a2714610d5d578063b70a58f714610c3f578063bbed0e8414610c22578063bd85948c14610a9a578063be21cc9b14610a7d578063c0d7865514610a2d578063c505371214610a10578063cb896fba146109e2578063d6e3c562146105fc578063db2e21bc1461059e578063de78733c14610581578063e21b38d214610544578063e30c39781461051c578063e31f1a7c146103a9578063e6ecd2d21461038e578063ed9f089314610364578063f2fde38b146102ed578063f887ea40146102c5578063fc0c546a1461029d578063fc2a88c3146102805763fd25ef1914610261575f61000f565b3461027c575f36600319011261027c576020604051600a8152f35b5f80fd5b3461027c575f36600319011261027c576020600e54604051908152f35b3461027c575f36600319011261027c576004546040516001600160a01b039091168152602090f35b3461027c575f36600319011261027c576005546040516001600160a01b039091168152602090f35b3461027c57602036600319011261027c5761030661213f565b6001546001600160a01b03169061031e3383146121b5565b600380546001600160a01b0319166001600160a01b03929092169182179055907f38d16b8cac22d99fc7c124b9cd0de2d3fa1faef420bfe791d8c362d765e227005f80a3005b3461027c57602036600319011261027c576004355f526017602052602060405f2054604051908152f35b3461027c575f36600319011261027c57602060405160648152f35b3461027c575f36600319011261027c576103c76001600f54146121ea565b6002600f55335f5260106020526103e460ff60405f20541661236c565b335f52601060205260405f2060ff198154169055335f52601260205260405f20546019545f198101908111610508578082036104a9575b50506019548015610495575f190161043281612165565b81549060018060a01b039060031b1b19169055601955335f5260126020525f6040812055610461600d546123ae565b600d557f3e085cc53b86c19e2e6dba628297af6b8f76c89d1384dbcc599bab2adfd62d086020604051338152a16001600f55005b634e487b7160e01b5f52603160045260245ffd5b6104b290612165565b905460039190911b1c6001600160a01b03166104f5816104d184612165565b81546001600160a01b0393841660039290921b91821b9390911b1916919091179055565b5f52601260205260405f2055808061041b565b634e487b7160e01b5f52601160045260245ffd5b3461027c575f36600319011261027c576003546040516001600160a01b039091168152602090f35b3461027c57602036600319011261027c576001600160a01b0361056561213f565b165f526010602052602060ff60405f2054166040519015158152f35b3461027c575f36600319011261027c576020600b54604051908152f35b3461027c575f36600319011261027c576001546105e3906001600160a01b03166105c93382146121b5565b6105d76001600f54146121ea565b6002600f554790612eac565b5f6009555f600a555f600b555f600c556001600f555f80f35b3461027c57606036600319011261027c57600435610618612155565b906044359167ffffffffffffffff831161027c573660238401121561027c5782600401359167ffffffffffffffff831161027c576024840193602484369201011161027c57335f52601060205261067560ff60405f20541661236c565b805f52601360205260405f209161068e835415156122ee565b600283015442116109b4576106aa60ff60038501541615612322565b5f82815260156020908152604080832033845290915290205460ff166109835760ff169260038411610955576024602060018060a01b0360045416604051928380926370a0823160e01b82523360048301525afa90811561094a575f91610918575b5060075481106108e95761073690335f52601160205260405f2054155f146108d6576064906122a1565b825f52601460205260405f209561074c836122d2565b610759604051918261223e565b8381526020810190848383375f60208683010152519020906040519561077e87612222565b3387526020870190888252604088019384526060880197858952608081019a428c528054600160401b8110156108c2576107bd9160018201815561227b565b9190916108af577fe4cfed7019186f7035e98a004dd42cdd5545a60da1e34aaa79300ac0f849bf1f9b60c09a899760049660039460018060a01b039051166bffffffffffffffffffffffff60a01b8754161786555185549060ff60a01b9060a01b169060ff60a01b191617855551600185015551600284015551910155865f52601560205260405f2060018060a01b0333165f5260205260405f20600160ff198254161790550161086e815461226d565b90556040519687958652336020870152604086015260a060608601528160a0860152858501375f8383018501526080830152601f01601f19168101030190a1005b634e487b7160e01b5f525f60045260245ffd5b634e487b7160e01b5f52604160045260245ffd5b335f52601160205260405f2054906122a1565b60405162461bcd60e51b8152602060048201526007602482015266686f6c64696e6760c81b6044820152606490fd5b90506020813d602011610942575b816109336020938361223e565b8101031261027c57518661070c565b3d9150610926565b6040513d5f823e3d90fd5b60405162461bcd60e51b81526020600482015260066024820152651cda59db985b60d21b6044820152606490fd5b60405162461bcd60e51b81526020600482015260096024820152681cdd589b5a5d1d195960ba1b6044820152606490fd5b60405162461bcd60e51b815260206004820152600660248201526518db1bdcd95960d21b6044820152606490fd5b3461027c575f36600319011261027c5760206040517310ed43c718714eb63d5aa57b78b54704e256024e8152f35b3461027c575f36600319011261027c576020600d54604051908152f35b3461027c57602036600319011261027c57610a4661213f565b610a5b60018060a01b036001541633146121b5565b600580546001600160a01b0319166001600160a01b0392909216919091179055005b3461027c575f36600319011261027c576020600954604051908152f35b3461027c575f36600319011261027c57610abf60018060a01b036001541633146121b5565b600854805f52601360205260405f208115908115610c13575b5015610bdf57610ae79061226d565b80600855610af65f5442612294565b906040519160c0830183811067ffffffffffffffff8211176108c25760ff92600592849260405281865260208601904282526040870190815260608701905f825260808801925f845260a08901948686525f52601360205260405f20985189555160018901555160028801556003870190511515848019835416911617905551600486015551169201911660ff19825416179055610b92612f0e565b6008545f52601660205260405f20557f278844837bcf8364a705384bf3a2812901f54155bae86dea81dd52aa5b9ec0e36040600854610bd25f5442612294565b82519182526020820152a1005b60405162461bcd60e51b815260206004820152600c60248201526b707265762070656e64696e6760a01b6044820152606490fd5b60ff9150600301541682610ad8565b3461027c575f36600319011261027c576020600754604051908152f35b3461027c57602036600319011261027c576004355f52601460205260405f20805490610c6a82612354565b91610c78604051938461223e565b8083526020830180925f5260205f205f915b838310610d09578486604051918291602083019060208452518091526040830191905f5b818110610cbc575050500390f35b91935091602060a0600192608087518580851b03815116835260ff858201511685840152604081015160408401526060810151606084015201516080820152019401910191849392610cae565b60046020600192604051610d1c81612222565b60ff8654868060a01b038116835260a01c16838201528486015460408201526002860154606082015260038601546080820152815201920192019190610c8a565b3461027c575f36600319011261027c576020600c54604051908152f35b3461027c57602036600319011261027c576001600160a01b03610d9b61213f565b165f526011602052602060405f2054604051908152f35b3461027c575f36600319011261027c576020600a54604051908152f35b3461027c57602036600319011261027c57600435610df860018060a01b036001541633146121b5565b61012c81101580610e3a575b15610e0d575f55005b60405162461bcd60e51b815260206004820152600560248201526406ada5a6cd60db1b6044820152606490fd5b50615460811115610e04565b3461027c57604036600319011261027c576024356001600160a01b038116810361027c576004355f52601560205260405f209060018060a01b03165f52602052602060ff60405f2054166040519015158152f35b3461027c575f36600319011261027c576020600854604051908152f35b3461027c575f36600319011261027c576006546040516001600160a01b039091168152602090f35b3461027c575f36600319011261027c576002546040516001600160a01b039091168152602090f35b3461027c575f36600319011261027c57602060405173bb4cdb9cbd36b01bd1cbaebf2de08d9173bc095c8152f35b3461027c575f36600319011261027c576001546040516001600160a01b039091168152602090f35b3461027c57602036600319011261027c576004355f52601360205260c060405f20805490600181015490600281015460ff6003830154169060ff6005600485015494015416936040519586526020860152604085015215156060840152608083015260a0820152f35b3461027c575f36600319011261027c5760206040517309b44a633de9f9ebf6fb9bdd5b5629d3dd2cef138152f35b3461027c575f36600319011261027c576003546001600160a01b0381163381900361106457600154816001600160a01b0382167f8be0079c531659141344cd1fd0a4f28419497f9722a3daafe3b4186f6b6457e05f80a36001600160a01b03199081169190911760015516600355005b60405162461bcd60e51b81526020600482015260086024820152672170656e64696e6760c01b6044820152606490fd5b3461027c57602036600319011261027c576004356110bd60018060a01b036001541633146121b5565b805f52601360205260405f206110d5815415156122ee565b60028101544211156117bb5760ff60036110f29201541615612322565b600e54611785576001600160a01b03611109612517565b16604051631b4d85a560e21b81525f60048201525f81602481855afa801561094a575f906116b6575b6020915001519081471061168457825f52601460205260405f2060809060405161115c838261223e565b823682376040519061116e848361223e565b833683378254925f5b84811061160b57505061118987613237565b9261119390613237565b91815161119f90613237565b9181516111ab90613237565b9160208201516111ba90613237565b9160208201516111c990613237565b60408201516111d790613237565b9060408401516111e690613237565b92606001516111f490613237565b936060015161120290613237565b9460095461120f90613237565b96600a5461121c90613237565b98600b5461122990613237565b9a600c5461123690613237565b9c61123f612f0e565b61124890613237565b9e6040516080526080516020017f596f75206172652074686520486976654d696e64207472656173757279206f7290526080516040017f61636c65206f6e204253432e2043686f6f73652065786163746c79206f6e652090526080516060017f616374696f6e3a20455850414e442830292c20434f4e54524143542831292c209052608051017f444953545249425554452832292c204255594241434b2833292e2000000000009052608051609b016502937bab732160d51b90528051602081920160805160a1015e6080510160a18101692e205369676e616c733d60b01b90528151602081930160ab83015e0160a101600a8101752e20457870616e6420636f756e742f7765696768743d60501b905281516020819301602083015e01600a0160168101602f60f81b905281516020819301601783015e01601601600181016a2e20436f6e74726163743d60a81b905281516020819301600c83015e01600101600b8101602f60f81b905281516020819301600c83015e01600b01600181016c2e20446973747269627574653d60981b905281516020819301600e83015e01600101600d8101602f60f81b905281516020819301600e83015e01600d0160018101692e204275796261636b3d60b01b905281516020819301600b83015e01600101600a8101602f60f81b905281516020819301600b83015e01600a01600181017f2e20506f6f6c73207265776172642f6469766964656e642f657865637574696f905260218101656e2f6465763d60d01b905281516020819301602783015e0160010160268101602f60f81b905281516020819301602783015e0160260160018101602f60f81b905281516020819301600283015e0160010160018101602f60f81b905281516020819301600283015e01600101600181017f2e20546f6b656e20707269636520696e2057424e422070657220316531382074905260218101646f6b656e3d60d81b905281516020819301602683015e01600101602581017f2e2043686f6f736520746865206265737420747265617375727920616374696f90526045810161371760f11b905260805190036025016002810160805152602201608051906115769161223e565b604051809263464d5bc560e11b8252600482015f90526024820160609052818060648101608051906115a791612191565b6004604483015203915a94602095f190811561094a575f916115d9575b5080600e555f52601860205260405f20555f80f35b90506020813d602011611603575b816115f46020938361223e565b8101031261027c5751826115c4565b3d91506115e7565b8060ff61161a6001938561227b565b505460a01c1661163d6116366116308388612efd565b5161226d565b9186612efd565b52600261164a828561227b565b50015461167d61167660ff61165f858861227b565b505460a01c1692611670848a612efd565b51612294565b9187612efd565b5201611177565b60405162461bcd60e51b815260206004820152600a6024820152696f7261636c652066656560b01b6044820152606490fd5b503d805f833e6116c6818361223e565b81019060208183031261027c5780519067ffffffffffffffff821161027c570160608183031261027c57604051906060820182811067ffffffffffffffff8211176108c257604052805167ffffffffffffffff811161027c57810183601f8201121561027c57805191611738836122d2565b94611746604051968761223e565b8386526020848401011161027c576020945f868561177b9682604097018386015e830101528452848101518585015201612260565b6040820152611132565b60405162461bcd60e51b815260206004820152600e60248201526d70656e64696e67206f7261636c6560901b6044820152606490fd5b60405162461bcd60e51b815260206004820152600660248201526577696e646f7760d01b6044820152606490fd5b3461027c575f36600319011261027c5761186160405161180a60608261223e565b603081527f486976654d696e64205472656173757279202d2d206167656e742d676174656460208201526f207369676e616c20747265617375727960801b6040820152604051918291602083526020830190612191565b0390f35b3461027c575f36600319011261027c576001546118b0906001600160a01b03166118903382146121b5565b61189e6001600f54146121ea565b6002600f55600c54905f600c55612eac565b6001600f55005b3461027c57602036600319011261027c576004355f526016602052602060405f2054604051908152f35b3461027c57602036600319011261027c5760043561190a60018060a01b036001541633146121b5565b6119186001600f54146121ea565b6002600f55805f52601360205260ff600360405f2001541615611a9e576009548015611a6c575f828152601460205260408120805491805b838110611a3857508015611a07575f6009555f5b8381106119a2577f29e98ba00d07f171959c4ddcd2f3020debc7c52cf537a034d7e664340d098c6c6040878782519182526020820152a16001600f55005b806119af6001928561227b565b50828060a01b039054165f5260116020526119d7836119d260405f2054896122a1565b6122b4565b806119e4575b5001611964565b611a01906119f2838761227b565b50848060a01b03905416612eac565b876119dd565b60405162461bcd60e51b81526020600482015260096024820152681b9bc81dd95a59da1d60ba1b6044820152606490fd5b90611a65600191611a49848661227b565b50838060a01b039054165f52601160205260405f205490612294565b9101611950565b60405162461bcd60e51b815260206004820152600a6024820152696e6f207265776172647360b01b6044820152606490fd5b60405162461bcd60e51b815260206004820152600c60248201526b1b9bdd08195e1958dd5d195960a21b6044820152606490fd5b3461027c57602036600319011261027c576004355f52601360205260405f2060ff60038201541615611b87576005015460ff1680611b265750611b196001600f54146121ea565b6002600f556118b0612ba1565b60018103611b4a5750611b3d6001600f54146121ea565b6002600f556118b0612ac8565b600203611b6c57611b5f6001600f54146121ea565b6002600f556118b06128be565b611b7a6001600f54146121ea565b6002600f556118b061262a565b60405162461bcd60e51b815260206004820152600b60248201526a1b9bdd08191958da59195960aa1b6044820152606490fd5b3461027c57602036600319011261027c5760043560195481101561027c57611be3602091612165565b905460405160039290921b1c6001600160a01b03168152f35b602036600319011261027c576004356001600160a01b03611c1b612517565b163303611c4457611c2f600e54821461256a565b5f5260186020525f60408120555f600e555f80f35b637f2aa37360e11b5f5260045ffd5b3461027c57602036600319011261027c57611c7960018060a01b036001541633146121b5565b600435600755005b3461027c57602036600319011261027c576004355f526018602052602060405f2054604051908152f35b3461027c575f36600319011261027c57611cc96001600f54146121ea565b6002600f55335f52601060205260ff60405f205416611f31576004546001600160a01b03168015611f04576006546040516307feec1960e21b815233600482015290602090829060249082906001600160a01b03165afa90811561094a575f91611eca575b5015611e99576020602491604051928380926370a0823160e01b82523360048301525afa90811561094a575f91611e67575b5060075411611e3457335f52601060205260405f20600160ff19825416179055335f52601160205260405f205415611e20575b601954335f5260126020528060405f2055600160401b8110156108c257611dc3816001611de19301601955612165565b81546001600160a01b0360039290921b91821b19163390911b179055565b611dec600d5461226d565b600d557f82d0829d9d481e4cb9913897f9b9c903271c4db68c7b3324071d2a7e3b2c5ff06020604051338152a16001600f55005b335f526011602052606460405f2055611d93565b60405162461bcd60e51b815260206004820152600b60248201526a6c6f7720686f6c64696e6760a81b6044820152606490fd5b90506020813d602011611e91575b81611e826020938361223e565b8101031261027c575181611d60565b3d9150611e75565b60405162461bcd60e51b81526020600482015260096024820152681b9bdd081859d95b9d60ba1b6044820152606490fd5b90506020813d602011611efc575b81611ee56020938361223e565b8101031261027c57611ef690612260565b82611d2e565b3d9150611ed8565b60405162461bcd60e51b81526020600482015260056024820152643a37b5b2b760d91b6044820152606490fd5b60405162461bcd60e51b815260206004820152600a6024820152691c9959da5cdd195c995960b21b6044820152606490fd5b3461027c575f36600319011261027c57602060405160c88152f35b3461027c57604036600319011261027c57600435611f9a612155565b6001600160a01b03611faa612517565b163303611c44577f93201d83ff5cd58eae31e98bcf8f9b382b8bc7e906c63a7c903cac3797a5d4019181600360ff60409492611fe9600e54861461256a565b1611612062575b60ff905f600e55825f526018602052835f2054925f5260186020525f84812055825f5260136020526005845f20600381016001851982541617905501828216831982541617905561203f612f0e565b835f526017602052845f205561205483613085565b8351928352166020820152a1005b505f611ff0565b3461027c57602036600319011261027c5761208261213f565b61209760018060a01b036001541633146121b5565b600480546001600160a01b0319166001600160a01b0392909216919091179055005b3461027c57602036600319011261027c576120d261213f565b6120e760018060a01b036001541633146121b5565b600680546001600160a01b0319166001600160a01b0392909216919091179055005b3461027c575f36600319011261027c5760205f54604051908152f35b3461027c575f36600319011261027c578061dead60209252f35b600435906001600160a01b038216820361027c57565b6024359060ff8216820361027c57565b60195481101561217d5760195f5260205f2001905f90565b634e487b7160e01b5f52603260045260245ffd5b805180835260209291819084018484015e5f828201840152601f01601f1916010190565b156121bc57565b60405162461bcd60e51b815260206004820152600660248201526510b7bbb732b960d11b6044820152606490fd5b156121f157565b60405162461bcd60e51b81526020600482015260096024820152681c99595b9d1c985b9d60ba1b6044820152606490fd5b60a0810190811067ffffffffffffffff8211176108c257604052565b90601f8019910116810190811067ffffffffffffffff8211176108c257604052565b5190811515820361027c57565b5f1981146105085760010190565b805482101561217d575f5260205f209060021b01905f90565b9190820180921161050857565b8181029291811591840414171561050857565b81156122be570490565b634e487b7160e01b5f52601260045260245ffd5b67ffffffffffffffff81116108c257601f01601f191660200190565b156122f557565b60405162461bcd60e51b81526020600482015260056024820152641c9bdd5b9960da1b6044820152606490fd5b1561232957565b606460405162461bcd60e51b8152602060048201526004602482015263646f6e6560e01b6044820152fd5b67ffffffffffffffff81116108c25760051b60200190565b1561237357565b60405162461bcd60e51b8152602060048201526006602482015265085859d95b9d60d21b6044820152606490fd5b9190820391821161050857565b8015610508575f190190565b3d156123e4573d906123cb826122d2565b916123d9604051938461223e565b82523d5f602084013e565b606090565b341561251557610d053402348104610d05036105085761271061241b910480151580612501575b6124b2575b346123a1565b6028810281159082810460281482171561050857606490049161244083600954612294565b600955601e8102818104601e1483171561050857606490049261246584600a54612294565b600a5560148202928284046014141715610508576124ad936124a06124a09260646124a596049461249886600b54612294565b600b556123a1565b6123a1565b600c54612294565b600c55565b5f8080808460018060a01b03600254165af16124cc6123ba565b5015612415577f4921557987ae8bc39350d9263df6e58f06065f8d1c42df89a95b7de696b5353e6020604051838152a1612415565b506002546001600160a01b03161515612410565b565b60384614612552576061461461253a57632e6b901d60e21b5f524660045260245ffd5b73fbee0a1c921f6f4dadfadd102b8276175d1b518d90565b73aee3a7ca6fe6b53f6c32a3e8407ec5a9df8b7e3990565b1561257157565b60405162461bcd60e51b8152602060048201526006602482015265189859081a5960d21b6044820152606490fd5b80511561217d5760200190565b80516001101561217d5760400190565b90602080835192838152019201905f5b8181106125d95750505090565b82516001600160a01b03168452602093840193909201916001016125cc565b612616606092959493955f83526080602084015260808301906125bc565b6001600160a01b0390951660408201520152565b600b545f90801580156128ab575b6128a7575f600b55600480546040516370a0823160e01b815230928101929092529091906001600160a01b0316602083602481845afa92831561094a575f93612873575b506040519061268c60608361223e565b60028252604036602084013773bb4cdb9cbd36b01bd1cbaebf2de08d9173bc095c6126b68361259f565b526126c0826125ac565b526005546001600160a01b031690813b1561027c575f916126fb9160405194858094819363b6f9de9560e01b835242903090600485016125f8565b03925af1801561094a5761285e575b50600480546040516370a0823160e01b815230928101929092526001600160a01b031691602082602481865afa801561285357849061281f575b61274e92506123a1565b8061275857505050565b82916044602092604051948593849263a9059cbb60e01b845261dead600485015260248401525af19182156128135780926127d3575b50501561279757565b60405162461bcd60e51b8152602060048201526014602482015273189d5c9b881d1c985b9cd9995c8819985a5b195960621b6044820152606490fd5b9091506020823d60201161280b575b816127ef6020938361223e565b81010312612808575061280190612260565b5f8061278e565b80fd5b3d91506127e2565b604051903d90823e3d90fd5b506020823d60201161284b575b816128396020938361223e565b8101031261027c5761274e9151612744565b3d915061282c565b6040513d86823e3d90fd5b61286b9192505f9061223e565b5f905f61270a565b9092506020813d60201161289f575b8161288f6020938361223e565b8101031261027c5751915f61267c565b3d9150612882565b5050565b506004546001600160a01b031615612638565b600a5480158015612abe575b8015612aab575b612aa8576019545f805b8281106129d7575080156129d2575f600a555f5b8281106128fc5750505050565b61290581612165565b60018060a01b0391549060031b1c1690815f52601060205260ff60405f205416156129c957602491602060018060a01b0360045416604051948580926370a0823160e01b82528560048301525afa801561094a5784935f91612992575b506001936119d261297392896122a1565b80612982575b50505b016128ef565b61298b91612eac565b5f80612979565b9350506020833d82116129c1575b816129ad6020938361223e565b8101031261027c5791518392906001612962565b3d91506129a0565b6001915061297c565b505050565b6129e081612165565b60018060a01b0391549060031b1c165f52601060205260ff60405f205416612a0b575b6001016128db565b6004549091906001600160a01b03166020612a2584612165565b90546040516370a0823160e01b815260039290921b1c6001600160a01b0316600482015291829060249082905afa90811561094a575f91612a76575b50612a6e90600192612294565b919050612a03565b90506020813d8211612aa0575b81612a906020938361223e565b8101031261027c57516001612a61565b3d9150612a83565b50565b506004546001600160a01b0316156128d1565b50600d54156128ca565b600b548060011c9081158015612b8e575b6128a75781612ae7916123a1565b600b55604051612af860608261223e565b60028152604036602083013773bb4cdb9cbd36b01bd1cbaebf2de08d9173bc095c612b228261259f565b526004546001600160a01b0316612b38826125ac565b526005546001600160a01b031690813b1561027c575f91612b739160405194858094819363b6f9de9560e01b835242903090600485016125f8565b03925af1801561094a57612b845750565b5f6125159161223e565b506004546001600160a01b031615612ad9565b600b545f908060011c90600282108015612e99575b6129d25780612bc883612bd5936123a1565b600b5560021c80926123a1565b600480546040516370a0823160e01b815230928101929092526001600160a01b031692602082602481875afa91821561094a575f92612e65575b50604051606094612c20868361223e565b60028252601f19860136602084013773bb4cdb9cbd36b01bd1cbaebf2de08d9173bc095c612c4d8361259f565b52612c57826125ac565b526005546001600160a01b031690813b1561027c575f91612c929160405194858094819363b6f9de9560e01b835242903090600485016125f8565b03925af1801561094a57612e50575b50600480546040516370a0823160e01b815230928101929092526001600160a01b031691602082602481865afa8015612e45578690612e11575b612ce592506123a1565b9081158015612e09575b612e025760055460405163095ea7b360e01b81526001600160a01b03909116600482015260248101839052906020908290604490829089905af18015612df75790849291612db7575b5060c460018060a01b03600554169360018060a01b036004541690604051958694859363f305d71960e01b8552600485015260248401528860448401528860648401523060848401524260a48401525af1612d9257505050565b813d8311612db0575b612da5818361223e565b810103126128085750565b503d612d9b565b9091506020813d602011612def575b81612dd36020938361223e565b81010312612deb5790612de68492612260565b612d38565b8480fd5b3d9150612dc6565b6040513d87823e3d90fd5b5050505050565b508215612cef565b506020823d602011612e3d575b81612e2b6020938361223e565b8101031261027c57612ce59151612cdb565b3d9150612e1e565b6040513d88823e3d90fd5b612e5d9194505f9061223e565b5f925f612ca1565b9091506020813d602011612e91575b81612e816020938361223e565b8101031261027c5751905f612c0f565b3d9150612e74565b506004546001600160a01b031615612bb6565b81156128a7575f80809381935af1612ec26123ba565b5015612eca57565b60405162461bcd60e51b815260206004820152600b60248201526a1cd95b990819985a5b195960aa1b6044820152606490fd5b90600481101561217d5760051b0190565b6004546001600160a01b031680158015613072575b612fda575f612fac9160405190612f3b60608361223e565b600282526040366020840137612f508261259f565b5273bb4cdb9cbd36b01bd1cbaebf2de08d9173bc095c612f6f826125ac565b5260018060a01b0360055416604051808095819463d06ca61f60e01b8352670de0b6b3a764000060048401526040602484015260448301906125bc565b03915afa5f9181612fdf575b50612fc257505f90565b60018151115f14612fda57612fd6906125ac565b5190565b505f90565b9091503d805f833e612ff1818361223e565b81019060208183031261027c5780519067ffffffffffffffff821161027c57019080601f8301121561027c57815161302881612354565b92613036604051948561223e565b81845260208085019260051b82010192831161027c57602001905b82821061306257505050905f612fb8565b8151815260209182019101613051565b506005546001600160a01b031615612f23565b90815f52601460205260405f209182541561323257805f52601760205260405f2054905f52601660205260405f20541115805f1461322a575f905b15613222576002925b5f5b815481101561321b576130de818361227b565b50546001600160a01b03165f8181526011602052604090205490919060ff613106838661227b565b505460a01c1660ff86161480156131fe575b1561319157600a8101809111610508576001927f16d0848e499fa9fd0f755c0563c69a05617a0663a704dabd1933f6f75fa3f2199160c881111561318c575060c85b905b5f8181526011602090815260409182902084905581516001600160a01b039093168352820192909252a1016130cb565b61315a565b600f8111156131d2576004198101908111610508576001927f16d0848e499fa9fd0f755c0563c69a05617a0663a704dabd1933f6f75fa3f219915b9061315c565b507f16d0848e499fa9fd0f755c0563c69a05617a0663a704dabd1933f6f75fa3f219600192600a6131cc565b5060ff61320b838661227b565b505460a01c1660ff881614613118565b5050509050565b6003926130c9565b6001906130c0565b509050565b80156132d95780815f925b6132c35750613250826122d2565b9161325e604051938461223e565b80835281601f1961326e836122d2565b013660208601375b61327f57505090565b600a8206603001908160301161050857613298906123ae565b91835183101561217d57600a9160f81b6001600160f81b0319165f1a84840160200153049081613276565b90916132d0600a9161226d565b92910480613242565b506040516132e860408261223e565b60018152600360fc1b60208201529056fea26469706673582212204d072081ac65fc9845b3f5265fb48ac8ae29f67efbf8bf88b55163a69e659d8a64736f6c634300081c0033","linkReferences":{}},"methodIdentifiers":{"DEAD()":"03fd2a45","DEFAULT_AGENT_IDENTIFIER()":"7a2d60cf","DEFAULT_ROUTER()":"cb896fba","SCORE_INIT()":"e6ecd2d2","SCORE_MAX()":"1e50ee5f","SCORE_MIN()":"fd25ef19","WBNB()":"8dd95002","acceptOwnership()":"79ba5097","accuracyScore(address)":"b32f2013","agentIdentifier()":"8eb31c0f","agents(uint256)":"513856c8","claimDevPool()":"6031522e","currentRoundId()":"9cbe5efd","description()":"7284e416","devPool()":"b5838a27","devWallet()":"8ea5220f","distributeRewards(uint256)":"59974e38","emergencyWithdraw()":"db2e21bc","executeRound(uint256)":"783cf332","executionPool()":"de78733c","fulfillReasoning(uint256,uint8)":"1ba900eb","getSignals(uint256)":"b70a58f7","hasSubmittedSignal(uint256,address)":"a4352948","holderDividendPool()":"af6f151a","isRegisteredAgent(address)":"e21b38d2","lastRequestId()":"fc2a88c3","manualExecute(uint256)":"5740f580","minHolding()":"bbed0e84","onFlapAIRequestRefunded(uint256)":"5000d3e5","owner()":"8da5cb5b","pendingOwner()":"e30c3978","registerAgent()":"35eb5208","registeredAgents(address)":"74ee82fc","requestToRound(uint256)":"385542f0","roundEndPrice(uint256)":"ed9f0893","roundStartPrice(uint256)":"5f1ed1cf","roundWindow()":"1031a063","rounds(uint256)":"8c65c81f","router()":"f887ea40","setAgentIdentifier(address)":"143e7c32","setMinHolding(uint256)":"4e45feb2","setRoundWindow(uint256)":"a90e27c6","setRouter(address)":"c0d78655","setToken(address)":"144fa6d7","signalRewardPool()":"be21cc9b","startNewRound()":"bd85948c","submitSignal(uint256,uint8,string)":"d6e3c562","token()":"fc0c546a","totalAgents()":"c5053712","transferOwnership(address)":"f2fde38b","unregisterAgent()":"e31f1a7c"},"id":14}